:100000000C9443080C948A080C948A080C948A086F
:100010000C948A080C948A080C948A080C948A0818
:100020000C948A080C948A080C94222A0C94DE29D9
:100030000C94882F0C948A080C948A080C948A08D3
:100040000C948A080C948A080C948A080C948A08E8
:100050000C94AF2F0C94642F0C948A080C948A088B
:100060000C948A080C948A080C948A080C948A08C8
:100070000C948A080C948A080C948A080C948A08B8
:100080000C948A080C948A080C948A080C948A08A8
:100090000C948A080C948A080C948A080C948A0898
:1000A0000C948A080C948A080C948A080631FF097B
:1000B00074A1010975150026FF00952075088102BD
:1000C0000976150026FF00952075089102C00501EC
:1000D0000980A101850319012AB700150126B7007F
:1000E000950175108100C0050C0901A10185041955
:1000F000012AA002150126A002950175108100C0F9
:1001000005010906A1018505050719E029E7150084
:1001100025019508750181020507190029EF1500D1
:10012000250195F07501810205081901290595053C
:1001300075019102950175039101C005010906A1A0
:1001400001050719E029E7150025019508750181CA
:10015000029501750881010507190029FF15002680
:10016000FF00950675088100050819012905950508
:1001700075019102950175039101C0000101010112
:100180000101010101020202020202020202030352
:100190000303030303030404040404040405050522
:1001A00005050606060606070707070708080808E4
:1001B000090909090A0A0A0B0B0B0C0C0C0D0D0D91
:1001C0000E0E0E0F0F0F1010111111121213131427
:1001D00014151516161717181819191A1A1B1B1C9F
:1001E0001D1D1E1E1F2020212222232424252626F9
:1001F000272829292A2B2C2D2D2E2F30313232332E
:100200003435363738393A3B3C3D3E3F4041424336
:100210004445464748494A4C4D4E4F50515354551A
:100220005658595A5B5D5E5F616264656668696BCA
:100230006C6D6F7072737577787A7B7D7E80828348
:100240008587888A8C8E8F91939596989A9C9EA08C
:10025000A2A3A5A7A9ABADAFB1B3B5B7BABCBEC099
:10026000C2C4C6C9CBCDCFD1D4D6D8DBDDDFE2E462
:10027000E7E9EBEEF0F3F5F8FAFDFF7267626C69FF
:10028000676874206D6F6465205B4E4F4545505222
:100290004F4D5D3A2025750A007267626C69676888
:1002A00074206D6F6465205B454550524F4D5D3A3B
:1002B0002025750A007267626C696768742073652F
:1002C0007420687376205B4E4F454550524F4D5D0C
:1002D0003A2025752C25752C25750A007267626CED
:1002E000696768742073657420687376205B454580
:1002F00050524F4D5D3A2025752C25752C25750AD9
:10030000007267626C69676874207261696E626FFF
:100310007720736574206873763A2025642C2564F1
:100320002C25642C25750A00FFAA7F554072676250
:100330006C696768742074696D657220656E6162AE
:100340006C65642E0A007267626C69676874207459
:10035000696D65722064697361626C652E0A0022A2
:1003600023252628292A2C2D2F3032333536383AAA
:100370003B3D3E4042434547494A4C4E5051535500
:1003800057595A5C5E6062646668696B6D6F717321
:100390007577797B7D7F81838587898A8C8E909222
:1003A0009496989A9C9E9FA1A3A5A7A8AAACAEAF2D
:1003B000B1B3B4B6B8B9BBBCBEBFC1C2C3C5C6C772
:1003C000C9CACBCCCDCED0D1D2D2D3D4D5D6D7D723
:1003D000D8D9D9DADADBDBDBDCDCDCDCDCDDDDDD6B
:1003E000DDDCDCDCDCDCDBDBDBDADAD9D9D8D7D767
:1003F000D6D5D4D3D2D2D1D0CECDCCCBCAC9C7C614
:10040000C5C3C2C1BFBEBCBBB9B8B6B4B3B1AFAE51
:10041000ACAAA8A7A5A3A19F9E9C9A9896949290F7
:100420008E8C8A89878583817F7D7B7977757371CF
:100430006F6D6B6968666462605E5C5A59575553AC
:1004400051504E4C4A4947454342403E3D3B3A3865
:1004500036353332302F2D2C2A2928262523220009
:10046000000000000000000000000101020304057C
:1004700006080A0C0F1114181C2024292E33393FAA
:10048000464C535B626A7179818A929AA2AAB2B988
:10049000C1C8CFD5DCE1E7EBF0F4F7FAFCFDFEFFD5
:1004A000FEFDFCFAF7F4F0EBE7E1DCD5CFC8C1B90B
:1004B000B2AAA29A928A8179716A625B534C463FD2
:1004C00039332E2924201C1814110F0C0A08060594
:1004D00004030201010000000000000000000062AF
:1004E00061636B6C696768742064656372656173CE
:1004F000653A2025750A006261636B6C69676874F0
:1005000020696E6372656173653A2025750A006221
:1005100061636B6C696768742064697361626C65A0
:100520000A006261636B6C6967687420656E616262
:100530006C650A006261636B6C6967687420746F34
:1005400067676C653A2025750A006261636B6C69A8
:1005500067687420737465703A2025750A006261BB
:10056000636B6C6967687420627265617468696E38
:10057000672064697361626C650A006261636B6C19
:100580006967687420627265617468696E67206566
:100590006E61626C650A006261636B6C69676874A6
:1005A00020627265617468696E6720746F67676C3A
:1005B000653A2025750A007267626C696768742065
:1005C00064697361626C65205B454550524F4D5DB7
:1005D0003A207267626C696768745F636F6E666900
:1005E000672E656E61626C65203D2025750A00727C
:1005F00067626C6967687420656E61626C65205B18
:10060000454550524F4D5D3A207267626C6967688C
:10061000745F636F6E6669672E656E61626C6520DC
:100620003D2025750A007267626C696768742074E2
:100630006F67676C65205B454550524F4D5D3A20B2
:100640007267626C696768745F636F6E6669672E54
:10065000656E61626C65203D2025750A0044454247
:1006600055473A2064697361626C65642E0A0044E0
:10067000454255473A20656E61626C65642E0A00FA
:1006800029001E002A5D2000210022002B5D2C5D28
:100690002D5D2E5D2F5D305D315D2A002B00140035
:1006A0001A000800150017001C0018000C001200AA
:1006B0001300325D335D345D015104001600070004
:1006C00009000A000B000D000E000F00355D365DBD
:1006D00000002800E1001D001B00060019000500B5
:1006E0001100100036003700380000000000E5005F
:1006F000E000E200E300000000002C000000000029
:10070000000050005200510000004F00295D3A00E7
:100710003B003C003D003E003F00400041004200E5
:100720004300440045004C0001000100520001005C
:100730000100010001000100010001004600470026
:10074000480001000100500051004F00010001006D
:1007500001000100010049004A004B0000000100B7
:100760000100A900AA00A800010001000100010089
:1007700001004D004E0000000000010001000100DA
:100780000100000000000100000000000000010066
:1007900001000100000001003F00433E20006164B1
:1007A000645F6B65795F6269743A2063616E277478
:1007B000206164643A20253032580A0064656C5F19
:1007C0006B65795F6269743A2063616E2774206497
:1007D000656C3A20253032580A000A00253032581C
:1007E00020006B6579626F6172645F7265706F7211
:1007F000743A20000A002575002E6C6576656C3A07
:1008000020000A002575002E656E61626C653A2035
:10081000000A0025303258006261636B6C696768BA
:10082000745F636F6E6669672E7261773A20000AA3
:10083000002575002E6E6B726F3A20000A00257538
:10084000002E737761705F6261636B736C617368B4
:100850005F6261636B73706163653A20000A002513
:1008600075002E737761705F67726176655F65737F
:10087000633A20000A002575002E6E6F5F67756968
:100880003A20000A002575002E737761705F72614F
:100890006C745F726775693A20000A002575002E36
:1008A000737761705F6C616C745F6C6775693A2017
:1008B000000A002575002E737761705F7263746C97
:1008C0005F726775693A20000A002575002E7377FC
:1008D00061705F6C63746C5F6C6775693A20000AC5
:1008E000002575002E636170736C6F636B5F746FAE
:1008F0005F636F6E74726F6C3A20000A002575009A
:100900002E737761705F636F6E74726F6C5F63617B
:1009100070736C6F636B3A20000A00253032580008
:100920006B65796D61705F636F6E6669672E72616A
:10093000773A20000A002575002E6D6F7573653AB1
:1009400020000A002575002E6B6579626F61726464
:100950003A20000A002575002E6D61747269783A9C
:1009600020000A002575002E656E61626C653A20D4
:10097000000A00253032580064656275675F636F56
:100980006E6669672E7261773A20000A002575004D
:1009900064656661756C745F6C617965723A20009C
:1009A0000A092D204D61676963202D0A443A0944E4
:1009B00065627567204D65737361676520546F6765
:1009C000676C650A583A094D61747269782044650C
:1009D000627567204D6F646520546F67676C652092
:1009E0002D2053686F77206B65797072657373651E
:1009F0007320696E206D6174726978206772696412
:100A00000A4B3A094B6579626F61726420446562F2
:100A1000756720546F67676C65202D2053686F776A
:100A2000206B65797072657373207265706F727474
:100A30000A4D3A094465627567204D6F75736520EC
:100A4000546F67676C650A563A0956657273696F29
:100A50006E0A533A095374617475730A433A094133
:100A60006374697661746520436F6E736F6C652083
:100A70004D6F64650A46312D4631303A0953776926
:100A800074636820746F204C6179657220302D3951
:100A90002028463130203D204C30290A302D393A6B
:100AA0000953776974636820746F204C61796572AB
:100AB00020302D390A47524156453A095377697417
:100AC000636820746F204C61796572203020286142
:100AD0006C7465726E617465290A423A094A756DD3
:100AE0007020746F20426F6F746C6F616465720A5E
:100AF0004553433A094A756D7020746F20426F6FF9
:100B0000746C6F616465722028616C7465726E61CB
:100B10007465290A453A095072696E74204545503A
:100B2000524F4D2053657474696E67730A42535077
:100B30004143453A09436C65617220454550524F27
:100B40004D0A4E3A094E4B524F20546F67676C6501
:100B50000A000A092D20436F6E736F6C65202D0A01
:100B60004553432F713A09717569740A004743432D
:100B70003A20382E342E30204156522D4C494243D3
:100B80003A20322E302E30204156525F4152434897
:100B90003A20617672350A004F5054494F4E533A0D
:100BA000204C5546412045585452414B455920430D
:100BB0004F4E534F4C4520434F4D4D414E44204ED8
:100BC0004B524F20343039360A004255494C443A92
:100BD0002022302E31312E302D342D6735393039E9
:100BE00063322D646972747922202830323A3030B1
:100BF0003A343520446563202032203230323029A7
:100C00000A005649443A203078364637352831753F
:100C1000706B6579626F6172647329205049443A40
:100C20002030783638373328317570363068736540
:100C300029205645523A203078303030310A000AA7
:100C4000092D2056657273696F6E202D0A00746934
:100C50006D65725F72656164333228293A202530F0
:100C6000346C580A006B65796D61705F636F6E66F6
:100C700069672E6E6B726F3A2025580A006B657992
:100C8000626F6172645F69646C653A2025580A007E
:100C90006B6579626F6172645F70726F746F636F9E
:100CA0006C3A2025580A00686F73745F6B6579622F
:100CB0006F6172645F6C65647328293A2025580A55
:100CC000000A092D20537461747573202D0A003FAA
:100CD000004E4B524F3A206F66660A004E4B524F01
:100CE0003A206F6E0A000A6D6F7573653A206F6661
:100CF000660A000A6D6F7573653A206F6E0A000A06
:100D00006B6579626F6172643A206F66660A000AE9
:100D10006B6579626F6172643A206F6E0A000A6DCA
:100D200061747269783A206F66660A000A6D6174B0
:100D30007269783A206F6E0A000A64656275673AD4
:100D4000206F66660A000A64656275673A206F6EF6
:100D50000A000A0A4A756D70696E6720746F206216
:100D60006F6F746C6F616465722E2E2E2000433E8F
:100D70002000436C656172696E6720454550524F93
:100D80004D0A006565636F6E6669673A0A004C2517
:100D9000640A007267626C696768745F636F6E668D
:100DA00069672E7370656564203D2025640A0072B2
:100DB00067626C696768745F636F6E6669672E76D9
:100DC000616C203D2025640A007267626C69676867
:100DD000745F636F6E6669672E736174203D2025B2
:100DE000640A007267626C696768745F636F6E663D
:100DF00069672E687565203D2025640A0072676862
:100E00006C696768745F636F6E6669672E6D6F6487
:100E100065203D2025640A007267626C696768740A
:100E20005F636F6E6669672E656E61626C65203DFB
:100E30002025640A007267626C696768745F636F7B
:100E40006E66696720454550524F4D3A0A007267F9
:100E5000626C696768745F696E6974207267626C3E
:100E6000696768745F636F6E6669672E6D6F64652E
:100E7000203D20302E2057726974652064656661BC
:100E8000756C742076616C75657320746F204545B0
:100E900050524F4D2E0A007267626C696768745F2A
:100EA000696E6974206565636F6E66696720697332
:100EB000206E6F7420656E61626C65642E0A00722C
:100EC00067626C696768745F696E697420737461C6
:100ED0007274210A007267626C696768745F696E78
:100EE00069742063616C6C65642E0A007267626CC1
:100EF000696768742064697361626C65205B4E4F3A
:100F0000454550524F4D5D3A207267626C69676883
:100F1000745F636F6E6669672E656E61626C6520D3
:100F20003D2025750A000A002530313662003A203E
:100F30000025303258000A722F63203031323334AA
:100F400035363738394142434445460A0032190A9A
:100F500000047F3F1F643214643214783C1E1E1458
:100F60000A050A0025303258006B6579626F61729C
:100F7000645F7365745F6C65643A20005B735D0049
:100F80004B6579626F6172642073746172742E0AAA
:100F9000005B435D005B445D005B535D0072676214
:100FA0006C6967687420656E61626C65205B4E4F8A
:100FB000454550524F4D5D3A207267626C696768D3
:100FC000745F636F6E6669672E656E61626C652023
:100FD0003D2025750A005B575D005B525D000902EC
:100FE0005B00030100A0FA090400000103010100F5
:100FF0000921110100012240000705810308000AB0
:10100000090401000103000000092111010001226F
:101010006D000705820320000A0904020002030094
:10102000000009211101000122220007058303208D
:101030000001070503032000011201100100000058
:1010400008756F736801000102030104033000009A
:101050000012033100750070003600300068007324
:1010600000650000001A033100750070006B006518
:1010700000790062006F006100720064007300007C
:1010800000040309040011241FBECFEFDAE0DEBF25
:10109000CDBF04B603FE27C08091200390912103A9
:1010A000A0912203B09123038730904BA740B04B0F
:1010B000D1F4109220031092210310922203109277
:1010C000230314BE84B7877F84BF0FB6F894A89516
:1010D00080916000886180936000109260000FBE74
:1010E000E0E0F8E3099523E0ACE9B1E001C01D922E
:1010F000A032B207E1F711E0A0E0B1E0EAE3F4E6E4
:1011000002C005900D92AC39B107D9F70E94792B36
:101110000C948F310C940000FF93EF93E0919C01AD
:10112000F0919D01309709F00995EF91FF91089595
:10113000FC018591803011F0EFDFFBCF0895FF2790
:10114000E0E230E247FF0CC0419597FF09C0EDE2B5
:101150006095709580959095611D711D811D911D03
:1011600027FF02C0219530E350E2AA27660F771FC0
:10117000881F991FAA1FA41710F0A41B63955A95E6
:10118000A9F7AA3008F0A95FA05DAF93F3956115A8
:1011900071058105910541F7ED3211F4EF93F39557
:1011A000F21718F43F93F395FBCF8F91B5DFFA95C3
:1011B000E1F70895E991F9918591803021F0853228
:1011C00019F0AADFF9CF089520E0E894559155323F
:1011D000C1F3503311F4689455915A3348F4505385
:1011E00090F3220F022E220F220F200D250FF4CF95
:1011F0000EF4219589919991533619F3533729F1BA
:10120000533559F1BC0188279927E8945C3621F4BD
:101210008991999168945591543639F446EF7EF04E
:1012200077FF0DC08FEF9FEF0AC055374AE039F0C6
:10123000583540E121F0523642E009F00895FF931D
:10124000EF937DDFEF91FF91B7CFFF93EF93FC0119
:1012500081918030B9F360DFFBCFFF93EF9368DFBC
:10126000F1CFDF93CF93CDB7DEB72596A3DFCF9134
:10127000DF910895E8EDF0E080818E7F8083109209
:10128000E2001092DA001092E100A0EEB0E08C9142
:1012900081608C9380818F77808319BCA7EDB0E04B
:1012A0008C918E7F8C9380818F7E80831092E90257
:1012B00008952091E4003091E50095E6A901209180
:1012C000EC00822F817020FF06C08091E80080FF33
:1012D00006C080E008952091E80022FD1AC08091A8
:1012E0001603882389F0853089F08091EB0085FD15
:1012F0000FC02091E4003091E50042175307F9F246
:101300009150E1F684E0089582E0089583E0089525
:1013100081E00895EF92FF920F931F93CF937C018A
:101320008B010E945909C82F811117C08091E800D4
:1013300085FD0BC08091E8008E778093E8000E94C5
:101340005909882399F3C82F08C0F70181917F01BB
:101350008093F1000150110949F78C2FCF911F9113
:101360000F91FF90EF9008958091180387FF13C0AD
:101370008091E80082FF06C08091E8008B7780931F
:10138000E80004C0809116038111F2CF0895809186
:1013900016038823D9F38091E80080FFF8CF80916D
:1013A000E8008E77ECCF982F9093E900242F762FCA
:1013B00050E0891731F07091EC002091ED005091D0
:1013C000F00021FD07C09F5F973071F78093E9001F
:1013D00081E008953091EB003E7F3093EB00309137
:1013E000ED003D7F3093ED003091EB0031603093A4
:1013F000EB007093EC002093ED005093F0002091EF
:10140000EE0027FDE0CF80E00895CF92DF92EF92CB
:10141000FF920F931F93CF93DF93C8EDD0E08881A5
:101420008F7E8883E7EDF0E080818160808384E0B7
:1014300082BF81E08093E90288818E7F888302EEFB
:1014400010E0F80110821092DA0081EEC82ED12C43
:10145000F601108288818F778883888180688883ED
:1014600088818F7D888319BC109216031092170310
:10147000109215031092140390EEE92EF12CF7014F
:1014800080818B7F808388818160888342E060E0F7
:1014900080E00E94D309F60180818E7F8083F8016D
:1014A000808181608083808188608083F701808172
:1014B0008E7F8083888180618883DF91CF911F91A7
:1014C0000F91FF90EF90DF90CF900895FC018091F5
:1014D0001E0390911F0386179707A0F061157105F1
:1014E00029F49091E8009E779093E80090E06115D0
:1014F000710551F4911108C08091E80082FF34C059
:1015000080E00895BC01F2CF809116038823C1F1D9
:101510008530C1F18091E80083FD30C08091E80002
:1015200082FDEACF8091E80080FFE1CF8091F30057
:101530002091F200382F6115710519F0283031051E
:1015400058F091E02830310509F090E02091E80052
:101550002E772093E800CBCF81918093F1006150EA
:1015600071092F5F3F4FE7CF80911603882341F029
:10157000853041F08091E80083FFBECF81E008957F
:1015800082E0089583E00895089508958091F3021C
:1015900008959C014FB7F8948091AC029091AD02F0
:1015A000A091AE02B091AF024FBF821B930B089582
:1015B0002FB7F8948091AC029091AD02A091AE0249
:1015C000B091AF022FBF0895829590E09C01220F49
:1015D000331F220F331F2C7C959587959595879502
:1015E0008373282B30E0C901880F991F8A7A3595BB
:1015F00027952575822B08958091A702811110925D
:10160000A70208952EE0929F800D1124982F9770C5
:1016100086958695869525E0829FF0011124EA58EB
:10162000FD4F50E040E080E0219130E0092E02C003
:10163000369527950A94E2F721703327042E01C0CE
:10164000220F0A94EAF7822B4F5F5F4F4530510516
:1016500059F708952EE0929F800D1124982F9770CE
:1016600041E001C0440F9A95EAF7869586958695E4
:1016700095E0899FF0011124EA58FD4F90E080E049
:1016800070E05191DF0111979B01082E02C0369541
:1016900027950A94E2F721702195252724232527F1
:1016A0002C9301968530910561F70895809175021C
:1016B00090914402981301C008958F5F8770FACF0C
:1016C00020913A0230913B022817390771F090932C
:1016D0003B0280933A02E091C702F091C802309732
:1016E00021F00084F185E02D0994089520913802BD
:1016F000309139022817390771F09093390280939D
:101700003802E091C702F091C802309721F00680BC
:10171000F781E02D09940895E091C702F091C80285
:10172000309721F00190F081E02D099480E0089538
:10173000CF92DF92EF92FF928C3724E1920750F420
:1017400069E070E00E943E30CB01FF90EF90DF90A7
:10175000CF900895B0E0A0E0BC01CD016A50774D74
:101760008F4F9F4F982F872F762F662725EF38E2D0
:1017700041E050E00E945E3169017A01CA01B9017D
:101780000E9414309B01AC01C701B6010E941430C5
:10179000672F782F892F99276115710521E082071E
:1017A000910591F66FEF7FEFCFCF8630E0F4811196
:1017B0001BC090918000977F909380002F98282FD6
:1017C00030E0AFEFBFEF0E94803125E030E040E035
:1017D00050E00E945E31C9010E94980B90938D00E9
:1017E00080938C00089585E090918000986090939C
:1017F0008000E5CFFA01811101C0FB0109948091BD
:10180000EB02982F9E7F29F4817082608093EB0217
:1018100008958635E8F381708465F8CFAF92BF9262
:10182000DF92EF92FF920F931F93CF93DF93082FD6
:10183000162FE901E42FF0E0E558FE4F611110C0CA
:10184000E4915E2F4E2F4983E8835A83DF91CF9135
:101850001F910F91FF90EF90DF90BF90AF90089590
:10186000E62EF12C4491D42EE42FF0E026E0829F66
:10187000C00111242FEF30E0B9010E943E30802FCB
:1018800090E0880F991F55E5569FD001579FB00DE6
:1018900011248A1B9B0B982F990F890F5901AE18A1
:1018A000BF08AE9ED001AF9EB00DBE9EB00D1124FC
:1018B0005B2F189F80011124012F11275901A01AB5
:1018C000B10AAE9E8001AF9E100DBE9E100D112478
:1018D0005901A81AB108AE9CC001AF9C900DBE9CE6
:1018E000900D1124892F9927281B390B2E9FC00199
:1018F0002F9F900D3E9F900D1124E92F62307105AE
:10190000A1F050F46115710509F49DCF61307105A6
:1019100081F0EB2F512F97CF6430710569F080F083
:101920006630710509F48FCFF4CFE42F4B2F592F78
:101930008ACFE42F412F87CFEB2F542F492F83CF0E
:101940004B2F5D2DE12F7FCFF894E82FE295EF70BC
:10195000F0E031A1282F2F7081E090E001C0880FC6
:101960002A95EAF7982F9095932391A392A1892B1A
:1019700082A3789408959091C40292FF06C0282F04
:1019800028712830F9F4877F846093FF06C0282FE0
:1019900028712831F1F4877E84612091C50220FFEF
:1019A00006C0382F38713830D9F4877F816021FF25
:1019B00006C0282F28712831D1F4877E816194FDDB
:1019C000877E0895282F24712430F9F68B7F886054
:1019D000DCCF282F2471243101F78B7E8861DDCF85
:1019E000382F3171313019F78E7F8860E0CF282F82
:1019F0002171213121F78E7E8861E1CFCF93DF9372
:101A0000972F70E02EE0929F600D711D1124FB0155
:101A100036E4839FE00DF11D1124EE0FFF1FE05807
:101A2000F94FC591D491CE01C238D105C9F108F062
:101A30003EC0C133D10509F49AC058F5C932D10569
:101A400009F48EC0CA32D10509F498C0C11540E529
:101A5000D40708F0C1C0C11520E4D20708F02FC197
:101A6000C03ED10508F09EC0C03CD10508F017C1AA
:101A7000C83AD10508F089C0C53AD10508F007C1B8
:101A8000C130D10511F1209709F443C02497E8F43F
:101A900040C0C533D10509F45CC0C933D105B1F6E6
:101AA0002091C402237089F080EE90E00EC0C33E06
:101AB000D10591F168F4C03ED105F9F0C23ED105DF
:101AC00029F62091C40222FD20C0DF91CF91089514
:101AD000C63ED10561F1C73ED10581F1C43ED105B5
:101AE00009F0B4CF2091C50221FFEFCF8091C4024D
:101AF00084FD0FC087EE90E0E8CF2091C40220FD66
:101B000024C13091C50230FFE0CF83EE90E024FF86
:101B1000DCCF90E080E0D9CF2091C40222FD18C133
:101B20003091C50230FDC0CF24FFCFCFF2CF20913E
:101B3000C40223FFCACF24FDECCFDCCF2091C40226
:101B400023FD09C13091C50231FFEECF84EE90E054
:101B5000BCCF2091C40225FFB8CF89E290E0B5CF79
:101B60002091C40225FFB1CF85E390E0AECF209154
:101B7000C40226FFAACF8AE290E0A7CF2091C40238
:101B800026FFA3CF81E390E0A0CFCF3BD10508F69D
:101B9000C85AD0E0CC0FDD1FC55BDE4F888199812C
:101BA000946493CFC11530E2D30750F4C11541E0DE
:101BB000D40708F08ACFC83ED10508F486CFA9CF54
:101BC000C11580E3D80708F072C0FE01FF70EE0F68
:101BD000FF1FE558FE4F68C0C11595E5D90748F5C8
:101BE000C11524E5D20708F099C0C11532E5D30725
:101BF00050F4C11541E5D40708F465C09C2F88272F
:101C0000816F906A62CF9C2F96959695AE01437036
:101C10005527C115D34508F072C021E030E002C05D
:101C2000220F331F4A95E2F740E2949FC00111242E
:101C300062C0C11599E5D907A0F4C11528E5D207FE
:101C400008F071C0C11536E5D30708F062CF8C2FBC
:101C50000E94BB0C90E0982F882788279F71906284
:101C600034CFC1154AE5D40708F462C0CE019056BE
:101C70008115904208F04DCF8D2F8F710E94BB0CC3
:101C800090E0982F882788279F718C2BE8CFC55A22
:101C9000D0E0C85BDE4F888190E0906416CFFE01F3
:101CA000EE0FFF1FE550F040859194910ECFCE01CD
:101CB0009927D3FF02C0986C08CF906C06CFCE0155
:101CC0009F70906A02CF9E01E4E036952795EA95D1
:101CD000E1F723708C2F86958695837030E2839F81
:101CE000C0011124922BC37021E030E002C0220F0A
:101CF000331FCA95E2F7822B932B9C68E6CE21E036
:101D000030E002C0220F331F4A95E2F740E2949F71
:101D1000C0011124822B932B9A68D7CE9C2F882741
:101D2000846F906AD2CE9C2F8827806F906ACDCE28
:101D30008C2F8F700E94BB0C34E0D695C7953A95D6
:101D4000E1F7CF709C2F9069C0CE89E390E0BDCEC3
:101D500082EE90E0BACE86EE90E0B7CEBF92CF9200
:101D6000DF92EF92FF920F931F93CF93DF938C013B
:101D7000C090C002D090C102E090C202F090C302B5
:101D80008091A8029091A902A091AA02B091AB0201
:101D9000C82AD92AEA2AFB2ACFE1D0E0BC2ED701F3
:101DA000C6010C2E04C0B695A795979587950A9401
:101DB000D2F780FD0EC0219788F7B12C8B2DDF91D3
:101DC000CF911F910F91FF90EF90DF90CF90BF9038
:101DD0000895B8018C2F0E94FE0C019761F3EECF9D
:101DE000CF93DF93EC010E94AE0EBE01DF91CF9145
:101DF0000C94FE0C0E94F00E292F2F7092959F706C
:101E000092509E3078F4E92FF0E0EF56FE4C0C949F
:101E10006630803F19F020F4883E20F481E0089578
:101E2000843FE1F380E00895883EC0F3813FD1F71D
:101E3000F5CF822F8695869586950895EF92FF922D
:101E40000F931F93CF93DF938091A6029091A502E9
:101E5000892B9091A402892B80939E019091A702D7
:101E60009923B1F0892B80939E0180911C018823D6
:101E700009F45DC08091C40287FF59C08EE1E0EA99
:101E8000F1E090E0815008F054C091110E94FC0AEA
:101E9000E091C702F091C802309709F450C08091D8
:101EA0001C01882359F08091C40287FF07C08091EC
:101EB0009E0180939F0185E080939E010280F381C3
:101EC000E02D8EE991E009958091EA0282FF37C00A
:101ED00080FF04C082EE97E00E949808CEE9D1E02E
:101EE00086EAE82E81E0F82E0CED17E08091EA02F8
:101EF00080FF0BC088811F928F931F930F930E94C6
:101F000031090F900F900F900F902196EC16FD065F
:101F100069F78091EA0280FF12C08AED97E0DF91B5
:101F2000CF911F910F91FF90EF900C94980886E04D
:101F3000A6CF2191222309F4A5CF9F5FA3CFDF91E4
:101F4000CF911F910F91FF90EF9008951092A502ED
:101F50001092A4020E941E0F90E080E00E94760B77
:101F600090E080E00C94600B6093C0027093C1021B
:101F70008093C2029093C3020C94A60F0F931F93F9
:101F800041E050E060E070E004C0440F551F661F60
:101F9000771F8A95D2F7CB01BA016095709580952D
:101FA00090950091C0021091C1022091C20230911F
:101FB000C30260237123822393231F910F910C94FA
:101FC000B40F9091A302809589238093A302282FB8
:101FD000277071F4282F082E000C330B921713066C
:101FE00039F08595859585950E94BE0F1092A302C4
:101FF00008950F931F9341E050E060E070E004C04B
:10200000440F551F661F771F8A95D2F78091C00233
:102010009091C102A091C202B091C3028A019B01BA
:10202000082B192B2A2B3B2BC901B8011F910F91AB
:102030000C94B40F6093A8027093A9028093AA0233
:102040009093AB020C94A60F882341F08095909159
:10205000A60289238093A6020C941E0F089588235C
:1020600039F09091A602982B9093A6020C941E0F23
:10207000089590911C01992359F19091C40297FF02
:1020800027C0E82FE695E695E695EE3180F4F0E07E
:10209000E256FE4F282F277081E090E001C0880FA4
:1020A0002A95EAF7809592818923828308959091F9
:1020B000EA0290FF19C01F928F938CEB97E09F93D9
:1020C0008F930E9431090F900F900F900F900895F9
:1020D000E0EAF1E09191891303C0DF0111971C92AE
:1020E00091E0E63AF907B1F7089590911C01992320
:1020F00049F19091C40297FF25C0E82FE695E69537
:10210000E695EE3170F4F0E0E256FE4F877021E084
:1021100030E001C0220F8A95EAF78281822B828308
:1021200008959091EA0290FF1EC01F928F938EE94E
:1021300097E09F938F930E9431090F900F900F901B
:102140000F900895A0EAB1E0EFEF90E02D91821793
:1021500051F0EF3F19F4211101C0E92F9F5F963034
:10216000A9F7EF3F09F408950E2E000CFF0BE2567D
:10217000FE4FD5CF882309F452C0823871F40E94F3
:102180008C0B81FF4CC089E30E9475100E941E0FCA
:1021900089E30E9439100C941E0F833859F40E9471
:1021A0008C0B80FF3CC083E50E9475100E941E0FBF
:1021B00083E5EFCF843859F40E948C0B82FF2FC047
:1021C00087E40E9475100E941E0F87E4E2CF9CEF07
:1021D000980F913AF0F290E2980F983088F4877057
:1021E00021E030E0A90102C0440F551F8A95E2F7B3
:1021F000CA0180959091A60289238093A602CBCF35
:102200009BE5980F933020F490E080E00C94760BDF
:10221000885A873120F490E080E00C94600B089598
:102220001092DB028091EA0280FF08C086E493E00E
:102230009F938F930E9431090F900F9008959FB73D
:10224000F8941092E7029FBF90911603943009F022
:1022500048C02091E9002F703091EC00932F9170CD
:1022600030FD90E8922B23E02093E9002091EB00D1
:1022700020FF34C02091EE0027FF30C02091B10232
:10228000222321F02091E80025FF28C01092B102FE
:1022900026E03091E80035FF14C08093F100809172
:1022A000E80085FD27C08091E80080FFFCCF809189
:1022B000E8008E778093E8009F709093E90080E0BB
:1022C000089530911603343049F43091EB0035FD18
:1022D00005C0215041F481E08093B1029F7090933A
:1022E000E9008FEF0895EFE9FFE03197F1F700C0C3
:1022F0000000CFCF8FB7F89421E02093E7028FBF83
:10230000DBCFCF93DF9300D00F92CDB7DEB79091A4
:102310001603943019F589837B836A8382E0809366
:10232000E9008FEF9091E800815095FD06C095ED92
:102330009A95F1F700008111F5CF8091E80085FFB3
:102340000DC050E040E063E070E0CE0101960E94D5
:102350008A098091E8008E778093E8000F900F90B3
:102360000F90DF91CF910895BC0184E00C9481110E
:10237000BC0183E00C948111CF93DF93EC01809139
:102380001C018823B1F18091C40287FF32C060E252
:1023900082E08093E9008FEF9091E800815095FDF5
:1023A00006C095ED9A95F1F700008111F5CF809167
:1023B000E80085FF1BC080911C0170E050E040E008
:1023C000811104C050E040E068E070E0CE010E945E
:1023D0008A098091E8008E778093E80080E2FE0110
:1023E000A4EFB2E001900D928A95E1F7DF91CF91D1
:1023F000089568E081E0CDCF81E08093E00080E245
:102400008093D8001092C9008FE19EE40197F1F704
:1024100000C0000087E090EBDC01809320039093E4
:102420002103A0932203B093230388E19CE00FB61D
:10243000F894A895809360000FBE90936000FFCF42
:102440008091EB0280FD0AC0E6ECF1E0118210827F
:102450001282339651E0E03FF507C1F7809A31B31D
:102460003E7F21B321604FB7F89486EC91E0FC01E8
:102470005191CF0168E021BB000000C057FF31BB84
:10248000550F000000C000C000C031BB00C06A95FD
:1024900091F7F1E0803F9F0751F74FBF8FE594E040
:1024A0000197F1F700C0000008958F929F92AF92BC
:1024B000BF92CF92DF92EF92FF920F931F93CF9331
:1024C000DF93FC01B280948081E08483C0EFD1E08F
:1024D00006EC11E08BE4A82E88248394EE24EA9481
:1024E000F12C2BE4C22ED12C91101DC01B821A821C
:1024F00098014A81698188810E940E0C25960D5FA2
:102500001F4F82E0C633D80779F7DF91CF911F9133
:102510000F91FF90EF90DF90CF90BF90AF909F9082
:102520008F900C9420122B81222309F121502B83B0
:102530003C818A2D821B311101C0822F9091EE02C5
:10254000899FC0011124B6010E943E306A83211187
:1025500004C0332311F01C82AB8222E02B1540F221
:102560008091EC0288838091ED028983C1CF0E9423
:10257000C730823091400CF0BBCF82E08B15C0F4A5
:102580000E94C730B7010E945230888322E02B1589
:1025900090F40E94C7302091ED022695622F70E0E2
:1025A0000E945230280F29831A82AB828C82A0CFDE
:1025B0008091EC02EACF2091ED02F5CFEF92FF92ED
:1025C0001F93CF93DF93EC0186ECE82E81E0F82E89
:1025D00010E08C8197014091EE026091ED02810F35
:1025E0000E940E0C1E5E83E0E80EF11C1C3F89F772
:1025F0000E9420129A818C8190FF08C08F5F8C838B
:10260000DF91CF911F91FF90EF9008958150F7CF08
:10261000BF92CF92DF92EF92FF920F931F93CF93CF
:10262000DF93FC018281DD24DA9480FD02C0DD2489
:10263000D39406EC11E0D0E0C0E02EE0B22EF80119
:1026400011821082128294E0E92EF12CC12C80912B
:10265000C3018C0D8F300CF43DC06B2D0E943030C7
:10266000892F082E000C990B8C179D0791F48091EF
:10267000EE028E9DA0018F9D500D1124559547951A
:102680005595479598016091ED028091EC020E946A
:102690000E0CCD0CF1E0EF1AF108C9F621960D5F92
:1026A0001F4FCE30D10559F60E9420128091C301F0
:1026B00091E0D91215C0811111C08DE08093C30142
:1026C000DF91CF911F910F91FF90EF90DF90CF900E
:1026D000BF90089587FFC5CF825FC3CF8150EECFF3
:1026E00090E00196BE010E945230E8CF0F931F93F5
:1026F000CF93DF93C6ECD1E0FE01118210821282EB
:10270000339681E0E03FF807C1F710E000E08091E8
:10271000C401082E000C990B081719078CF1809141
:102720001001082E000C990B801791074CF19E01A7
:102730004091EE026091ED028091EC020E940E0C3D
:102740000F5F1F4F23960E30110509F70E942012CC
:1027500080910F019091C401980F9093C401209132
:102760001001280F20931001121614F49D301CF054
:10277000819580930F01DF91CF911F910F91089563
:10278000198218821A82DCCF8F929F92AF92BF92E9
:10279000CF92DF92EF92FF920F931F93CF93DF932D
:1027A000EC014C81042F10E09801D8010E94803187
:1027B0009B01AC010E944B314B015C01E0E2F0E077
:1027C000E01BF10BA5E5B0E0AC019B010E944B3191
:1027D0006B017C019F01DF010E946C309B01AC0109
:1027E0000E9456319B01AC01280D391D4A1D5B1D0D
:1027F000C701B6010E945E31F22E822F90E039E2CD
:102800003F15D8F143E0249F900111243595279579
:10281000122F109596ECC92E91E0D92E00E085E597
:10282000E82EEF188E2D01FD8F2D9601412F60911E
:10283000ED020E940E0C0F5F53E0C50ED11C0E304E
:1028400089F70E9420129C8181E0992319F090322F
:1028500019F48FEF8093110180911101890F8C83FE
:10286000DF91CF911F910F91FF90EF90DF90CF906C
:10287000BF90AF909F908F90089525E530E0A9011B
:10288000481B590BCA019A01220F331F280F391F09
:1028900037FFBCCF2F5F3F4FB9CFEF92FF920F931F
:1028A0001F93CF93DF938C01C6ECD1E0F12CE12C88
:1028B000F80194816091ED028091EC02F7E0EF164F
:1028C000F104FCF49923F9F09E014091EE020E947C
:1028D0000E0C2FEFE21AF20A23968EE0E816F104AE
:1028E00039F70E942012F801848190E001968170EE
:1028F00099278483DF91CF911F910F91FF90EF90E3
:102900000895992309F39E0140E0E1CF9091EB02F5
:1029100090FF0CC0E6ECF1E0818360834283339644
:1029200091E0E03FF907C1F70C94201208950F934E
:102930001F93CF93DF9300D00F92CDB7DEB78C01FA
:102940008091C50181110AC09E012F5F3F4F4FEF5B
:102950006FEF0E940E0C8A818093C501F80164819B
:10296000613069F08091C50140E0662361F040E08C
:10297000623011F44091C50180E060E004C06091D4
:10298000C50140E080E00E948614F801848190E057
:10299000019663E070E00E94523084830F900F90A4
:1029A0000F90DF91CF911F910F910895CF93DF93F7
:1029B00000D00F92CDB7DEB79091EB0290FF0AC026
:1029C0009E012F5F3F4F0E940E0C4B8169818A81CF
:1029D0000E9486140F900F900F90DF91CF91089571
:1029E000CF93DF93EC01EC81F0E0E15AFC4F44918E
:1029F000EBEEF2E0628181810E94D6148C818F5FC0
:102A00008C83DF91CF910895CF93DF93EC01EBEEB0
:102A1000F2E0438162818C810E94D6148C818F5FA9
:102A20008C83DF91CF910895AF92BF92DF92EF92A6
:102A3000FF920F931F93CF93DF93C9E7D1E006EB8B
:102A400012E0D12CEE24E394F12C8991F894E82F34
:102A5000E295EF70F0E021A18F70A70102C0440F52
:102A6000551F8A95E2F7CA01922F982B91A392A144
:102A70008095892382A3789450EA5A95F1F7EEE77E
:102A8000F1E030E020E0B12CA12C4191A42FA295DF
:102A9000AF70B0E090968C9190E04F7002C0959529
:102AA00087954A95E2F780FD64C0C701022E02C0F7
:102AB000880F991F0A94E2F7A82AB92A2F5F3F4F7F
:102AC0002E30310511F7FE01319780810E94A40C50
:102AD000F80180819181A816B90609F44DC0B18230
:102AE000A08281E0D82A0E5F1F4FF1E0CE37DF07CA
:102AF00009F0ABCFDD2009F441C081E08093C20131
:102B00000E94D80A9093C1018093C0018091C001B6
:102B10009091C1010E94C90A0697A0F18091B60266
:102B20009091B7029093CB028093CA028091B80231
:102B30009091B9029093CD028093CC028091BA0219
:102B40009091BB029093CF028093CE028091BC0201
:102B50009091BD029093D1028093D0028091BE02E9
:102B60009091BF029093D3028093D2021092C2013F
:102B700009C090E080E0A0CF80E0B4CF8091C20196
:102B80008111C4CF8D2DDF91CF911F910F91FF90B7
:102B9000EF90DF90BF90AF900895CF9384E090E0E6
:102BA0000E94E430C82F81E290E00E94E430982F28
:102BB0008C2FCF910895682F86E090E00C94F83028
:102BC00090E080E00E94F23021E08C3E9E4F09F0C0
:102BD00020E0822F08956CEE7EEF90E080E00E946E
:102BE000163160E082E090E00E94F83060E083E01F
:102BF00090E00E94F8301092A8021092A902109260
:102C0000AA021092AB0260E084E090E00E94F830EB
:102C100060E081E290E00E94F83060E085E090E0C2
:102C20000E94F83060E086E090E00E94F8306FEF9C
:102C300087E090E00E94F83040E050E0BA0188E080
:102C400090E00E940A3160E08DE090E00E94F83050
:102C500040E050E0BA0188E190E00E940A3160E073
:102C600087E190E00E94F83040E050E0BA018CE14A
:102C700090E00E940A3160E080E290E00E94F8302B
:102C800040E050E0BA0188E190E00E940A3140E063
:102C900050E0BA018FE090E00E940A3140E050E03D
:102CA000BA0183E190E00C940A310E94E015811191
:102CB00002C00E94EB1586E090E00E94E430809311
:102CC000B202803320F0877088628093B2029091C4
:102CD000B202892F817090FF04C0892F8695869556
:102CE00086950C94D50BCF92DF92EF92FF926B01F9
:102CF0007C010E94FF0BB701A60188E090E0FF90E5
:102D0000EF90DF90CF900C940A312F923F924F9228
:102D10005F926F927F928F929F92AF92BF92CF926B
:102D2000DF92EF92FF920F931F93CF93DF9300D028
:102D300000D000D0CDB7DEB7582E262E342E2E83ED
:102D40009091EB0290FF47C0E92FE695AE2FB0E0DF
:102D5000A35EBE4F8C918093DA029E7F923009F081
:102D600053C09E012F5F3F4F852D0E940E0C4B815B
:102D700069818A810E9486145092EC022092ED02B1
:102D80003092EE028E81882309F49FC06091EB029D
:102D90007091EC028091ED029091EE020E94731608
:102DA0008091EA0280FF17C08091EE021F928F93FC
:102DB0008091ED021F928F938091EC021F928F936E
:102DC0008CED92E09F938F930E9431090FB6F89497
:102DD000DEBF0FBECDBF26960FB6F894DEBF0FBE86
:102DE000CDBFDF91CF911F910F91FF90EF90DF90BA
:102DF000CF90BF90AF909F908F907F906F905F909B
:102E00004F903F902F900895823019F43090EE0249
:102E1000B3CF863019F45090EC02AECF8930D9F39D
:102E2000893109F0A9CFE9518E2F81708C838E2FC3
:102E3000809581708D83E695F0E0E85DFC4FE5902C
:102E4000F490FF2486ECC82E81E0D82EB12CA12C62
:102E500010E000E09EE0692E712C21E0822E23E03C
:102E6000922EC501B3010E943E309C81452C9111E8
:102E70002AC0460E8091EA0280FF12C0FF92EF92B4
:102E80001F928D818F931F924F921F930F939F924A
:102E90008F920E9431090FB6F894DEBF0FBECDBFEE
:102EA0009601432D622D842D0E940E0C0F5F1F4F43
:102EB000AE0CBF1C93E0C90ED11C0E30110589F673
:102EC0000E94201259CF461AD5CF8091EA0280FF86
:102ED00082CF1F923F921F922F921F925F9285EB9B
:102EE00092E070CFEBEEF2E0438128E0421B08F461
:102EF00040E021E0628181810C948516EBEEF2E0E6
:102F0000438128E0420F08F44FEF21E06281818184
:102F10000C948516EBEEF2E0628128E0621B08F467
:102F200060E021E0438181810C948516EBEEF2E0B4
:102F3000628128E0620F08F46FEF21E04381818114
:102F40000C948516EBEEF2E0818121E043816281F1
:102F500088500C948516EBEEF2E0818121E04381EC
:102F60006281885F0C9485168091EF02882319F0A6
:102F700081508093EF026091EB027091EC0280919E
:102F8000ED029091EE020C9473168091EF02833063
:102F900018F48F5F8093EF026091EB027091EC0266
:102FA0008091ED029091EE020C947316EBEEF2E03C
:102FB00083E0808311828FEF828383831482608118
:102FC0007181828193810C9473161092A602809174
:102FD0001C01E0EAF1E0882359F08091C40287FFE8
:102FE00007C08EE1DF011D928A95E9F70C94A60FC8
:102FF00086E0F8CF1F93CF93DF93CDB7DEB7AA97C4
:103000000FB6F894DEBF0FBECDBF88E193E02091EC
:10301000F100DC012D93CD01B3E080329B07B9F7BD
:1030200080911903833009F46FC0B8F4813009F43A
:1030300046C0823009F4B0C08091E80083FF38C1F7
:1030400080911803909119039A3008F031C1E92F4B
:10305000F0E0E156FE4C0C9466308A3009F48BC0E7
:103060008B3009F46EC0893039F7809118038132B2
:1030700019F780911C0390911D030297E8F6809147
:10308000E800877F8093E8008091E80082FF37C0E6
:103090009091F3008091F200029729F48091F10061
:1030A0008B7F813021F48091F1008093F302809135
:1030B000E8008B778093E8000E94B409BDCF80912F
:1030C0001803813A09F0B8CF8091E800877F809398
:1030D000E80080911C0390911D03892B61F460E24C
:1030E00084EF92E070E00E94660A8091E8008B779E
:1030F0008093E800A1CF60E090E080E0F3CF809182
:1031000016038111C1CF98CF80911803813A09F03D
:1031100093CF80911C0390911D03892B09F08CCFD4
:103120008091E800877F8093E8008091E80080FF2D
:10313000FCCF80911C018093F1008091E8008E7794
:10314000B9CF80911803813209F076CF80911C03AA
:1031500090911D03892B09F06FCF8091E800877F44
:103160008093E8000E94B40980911A0380931C01A7
:103170000E94E51761CF80911803813209F05CCF7E
:103180008091E800877F8093E8000E94B4098091D5
:103190001B038093F20250CF80911803813A09F00B
:1031A0004BCF8091E800877F8093E8008091E80012
:1031B00080FFFCCF8091F202BECF803899F0823838
:1031C00009F076C080911C038F70873008F070C0C2
:1031D0008093E9008091EB0085FB882780F91092AD
:1031E000E90006C08091140390911503911182604B
:1031F0009091E800977F9093E8008093F1001092FF
:10320000F1008091E8008E77BBC1882309F4A8C142
:10321000823009F04DC080911A038111ACC18091B8
:103220001C038F702FEF280F263008F041C08093C9
:10323000E9002091EB0020FF9EC1933031F4809192
:10324000EB0080628093EB0096C19091EB0090615F
:103250009093EB0021E030E001C0220F8A95EAF75D
:103260002093EA001092EA008091EB008860EACF98
:1032700081111EC010911A031F778091E30080789E
:10328000812B8093E3008091E800877F8093E800A2
:103290000E94B4098091E80080FFFCCF8091E30098
:1032A00080688093E30082E0111183E0809316032D
:1032B0008091E80083FF0AC08091E800877F8093B7
:1032C000E8008091EB0080628093EB00AA960FB635
:1032D000F894DEBF0FBECDBFDF91CF911F9108954F
:1032E0008058823028F720911A0330911B032C3D1F
:1032F000E3E03E07A1F583E08A838AE289834FB742
:10330000F894DE01139620E03EE051E2E32FF0E076
:1033100050935700E49120FF03C0E295EF703F5FA8
:10332000EF708E2F90E0EA30C0F0C7968D939D939A
:103330002F5F243159F74FBF8091E800877F80933A
:10334000E8006AE270E0CE0101960E94660A809170
:10335000E8008B778093E800ABCFC096E7CF8091F1
:103360001C0390911D03432F55274330510509F449
:103370004AC078F54130510509F485C08BE590E0ED
:10338000EEEDFFE04230510509F092CF2091E800C8
:10339000277F2093E80020911E0330911F0382179E
:1033A000930708F49C0140E02115310509F070C035
:1033B00041116EC08091E80082FDC9CF8091160353
:1033C000882329F2853019F28091E80083FFF2CF3B
:1033D000BECF4132510509F447C04232510509F0D0
:1033E00067CF8330910508F063CFFC01EE0FFF1F1C
:1033F000E157FE4F0190F081E02D84579E4FDC0194
:103400008C9190E01DC0332721303105E9F0211562
:10341000310579F022303105F9F02330310509F01A
:1034200047CFEBE4F0E1E4918E2F90E0EBE4F0E1A4
:1034300007C0E1E8F0E1E4918E2F90E0E1E8F0E1EF
:10344000009709F435CFA2CFE5E6F0E1E4918E2FA5
:1034500090E0E5E6F0E1F4CFE1E5F0E1E4918E2FD4
:1034600090E0E1E5F0E1ECCF8330910508F020CF6A
:10347000880F991FFC01EB56FE4F0190F081E02D63
:1034800089E090E083CF82E190E0E9E3F0E17ECF54
:1034900080911603882309F45ACF853009F457CF59
:1034A0008091E80083FD53CF8091E80082FD82CFB8
:1034B0008091E80080FF78CF9091F3008091F20036
:1034C0002115310519F08830910550F041E0089739
:1034D00009F040E08091E8008E778093E80064CFA7
:1034E00044914093F1003196215031090196E8CF83
:1034F000803809F0DDCE8091E800877F8093E80076
:10350000809117038093F1007CCE8111D1CE109170
:103510001A03123008F0CCCE8091E800877F8093A8
:10352000E800109317030E94B409112311F084E0FE
:1035300005C08091E30087FDFACF81E080931603F8
:1035400042E061EC81E00E94D30942E261EC82E05A
:103550000E94D30942E261EC83E00E94D309A8CE25
:1035600080911A03813009F0A3CE81E0933009F0F5
:1035700080E0809315031092E9008091E800877F36
:103580008093E8000E94B40993CECF93C82F1F9276
:103590008F938EE89DE09F938F930E94310961E0A5
:1035A00070E080E090E004C0660F771F881F991FCD
:1035B000CA95D2F70E941A100F900F900F900F909B
:1035C000CF910C94E517CF93DF93EBEFE80FEF3338
:1035D00008F095C2F0E0E755FE4C0C94663083E8A5
:1035E0009DE00E94980880E999E00E94980883E095
:1035F00090E00E94E4301F928F938DE899E09F93B2
:103600008F930E9431098BE899E00E94980882E02C
:1036100090E00E94E430C82F88E799E00E94980863
:103620001F92CF9383E799E09F938F930E94310974
:1036300081E799E00E94980887E699E00E9498083F
:103640008C2F81701F928F9384E699E09F938F93C4
:103650000E94310982E699E00E94980888E599E085
:103660000E949808C1FB882780F91F928F9385E5F7
:1036700099E09F938F930E94310983E599E00E941E
:10368000980887E499E00E949808C2FB882780F98F
:103690001F928F9384E499E09F938F930E94310946
:1036A00082E499E00E94980889E399E00E949808D2
:1036B000C3FBCC27C0F91F92CF9386E399E09F9379
:1036C0008F930E94310984E399E00E9498080E9438
:1036D000CD15EC0180E299E00E949808DF93CF932A
:1036E0008BE199E09F938F930E94310989E199E0E2
:1036F0000E94980880E099E00E9498088C2F8170C1
:103700001F928F938DEF98E09F938F930E943109C2
:103710008DB79EB780960FB6F8949EBF0FBE8DBF33
:103720008BEF98E00E94980884EE98E00E94980839
:10373000C1FB882780F91F928F9381EE98E09F93B9
:103740008F930E9431098FED98E00E9498088DECCC
:1037500098E00E9498088D2F81701F928F938AECB9
:1037600098E09F938F930E94310988EC98E00E9423
:10377000980886EB98E00E949808D695D1701F9221
:10378000DF9383EB98E09F938F930E94310981EB45
:1037900098E00E9498088FE998E00E949808C2FB80
:1037A000882780F91F928F938CE998E09F938F93DD
:1037B0000E9431098AE998E00E94980888E898E018
:1037C0000E949808C3FB882780F91F928F9385E891
:1037D00098E09F938F930E94310983E898E00E94BC
:1037E000980889E798E00E949808C4FB882780F928
:1037F0001F928F9386E798E09F938F930E943109E1
:1038000084E798E00E94980882E698E00E94980871
:10381000C5FB882780F91F928F938FE598E09F93CF
:103820008F930E9431098DE598E00E94980881E409
:1038300098E00E949808C6FB882780F91F928F9312
:103840008EE398E09F938F930E9431098DB79EB7C6
:1038500080960FB6F8949EBF0FBE8DBF8CE398E0A4
:103860000E94980884E398E00E949808C7FBCC2740
:10387000C0F91F92CF9381E398E09F938F930E94AA
:1038800031098FE298E00E94980886E090E00E945B
:10389000E430C82F88E198E00E9498081F92CF93E7
:1038A00083E198E09F938F930E94310981E198E032
:1038B0000E94980887E098E00E9498088C2F8170F9
:1038C0001F928F9384E098E09F938F930E94310919
:1038D00082E098E00E94980889EF97E00E9498089B
:1038E000C695C695C6951F92CF9386EF97E09F9396
:1038F0008F930E94310984EF97E00E9498088DB75A
:103900009EB740960FB6F8949EBF0FBE8DBF81E064
:103910001CC082E79DE00E9498080E94EB15F7CF3B
:1039200080EA99E00E949808F2CF8091EA02807FB5
:103930008093EA0282E59BE00E9498088EE69DE073
:103940000E94980881E08093B002DF91CF910895A2
:1039500082E59DE00E9498080E94E5179FEF24E30E
:103960008CE0915020408040E1F700C000000E94B0
:10397000FC119091EA02892F8E7F90FF81608093E5
:10398000EA0280FF03C086E49DE0CCCF89E39DE09E
:103990000E9498088091EA02817F8093EA02B7CF63
:1039A0009091EA02892F8D7F91FF82608093EA02D5
:1039B00081FF08C08CE29DE00E9498088091EA0295
:1039C0008160EBCF8EE19DE0ADCF9091EA02892F2F
:1039D0008B7F92FF84608093EA0282FF03C08FE0B6
:1039E0009DE0EACF8FEF9CE09DCF9091EA02892F76
:1039F000877F93FF88608093EA0283FF03C083EF91
:103A00009CE0DACF86EE9CE08DCF8FE39CE00E94B5
:103A1000980882E09CE00E9498088AEC9BE00E9453
:103A2000980888E99BE00E9498088DE69BE07ACF91
:103A300081EC9CE00E9498080E948C0B1F928F934F
:103A400087EA9CE09F938F930E94310980911C012B
:103A50001F928F9380E99CE09F938F930E9431097E
:103A60008091F2021F928F938DE79CE09F938F933A
:103A70000E9431098091C40287FB882780F91F9238
:103A80008F9385E69CE09F938F930E9431092FB717
:103A9000F8948091AC029091AD02A091AE02B091E9
:103AA000AF022FBFBF93AF939F938F938EE49CE0A1
:103AB0009F938F930E9431098DB79EB746960FB69C
:103AC000F8949EBF0FBE8DBF22CF0E94E517909144
:103AD000C402892F97FB87F980588093C40287FF1F
:103AE00003C08CED9CE01ECF81ED9CE01BCF80E0FD
:103AF0000E94C51A0CCF8953FBCF8D51F9CF8FECA3
:103B00009CE00E94980880E020CFCF93C82F8823A4
:103B100009F481C08238C1F40E948C0B81FD7BC006
:103B200089E30E9475100E941E0F2FEF81EE94E032
:103B3000215080409040E1F700C0000089E30E94DE
:103B40003910CF910C941E0F8338A1F40E948C0B76
:103B500080FD61C083E50E9475100E941E0F2FEF4B
:103B600081EE94E0215080409040E1F700C00000D9
:103B700083E5E5CF8438A1F40E948C0B82FD4BC015
:103B800087E40E9475100E941E0F2FEF81EE94E0D3
:103B9000215080409040E1F700C0000087E4CFCF83
:103BA0008CEF8C0F813A08F067C08091B0028823B7
:103BB00049F1813091F11092B00280911C0188236B
:103BC00009F44CC08091C40287FF48C0EC2FE695F1
:103BD000E695E695F0E0E256FE4F828190E04C2FAC
:103BE000477021E030E002C0220F331F4A95E2F710
:103BF00082239323892BE1F18C2F0E9439100E949C
:103C00001E0F36C08091A6028232B9F68C2F0E9418
:103C1000E31A882391F2CF9108958091A60282320F
:103C2000A9F3C431B9F038F4CB3049F088E997E012
:103C30000E94980811C0C93269F0C833B9F782E50B
:103C40009BE00E9498088AE997E00E94980881E02A
:103C50008170DFCF1092B00280E0FACFE0EAF1E0AD
:103C600086EA91E02191C21739F28E179F07D1F7AA
:103C70008C2F0E94751065CF80E28C0F883068F41D
:103C8000C77021E030E001C0220FCA95EAF78091A9
:103C9000A602822B8093A60254CFEBE5EC0FE33013
:103CA00040F4F0E0E85BFE4F808190E0CF910C940F
:103CB000760BC85AC73108F0AECFEC2FF0E0EE0F0C
:103CC000FF1FE55BFE4F80819181CF910C94600BCB
:103CD0000F931F93CF93DF93C42FD22FFC018281C8
:103CE0008823A1F040933C020E94D80A90933702A7
:103CF00080933602C77081E001C0880FCA95EAF749
:103D0000DF91CF911F910F910C942F1010913C02D5
:103D1000141338C080913602909137020E94C90A6C
:103D2000883C910578F5C0E2CD0F1D17B9F080E20F
:103D3000810F883040F4177081E001C0880F1A9518
:103D4000EAF70E942410C83048F481E09D2F977054
:103D500001C0880F9A95EAF70E942F10802F0E94C9
:103D6000851D802F0E94BA10C83098F4D77081E06A
:103D700001C0880FDA95EAF7DF91CF911F910F917B
:103D80000C942410C77081E001C0880FCA95EAF72F
:103D9000F3CFDF91CF911F910F910895CF93DF93D0
:103DA000D62FC42FFC018281882309F190919E01B6
:103DB000292F227091FB882780F98093BF0181EE23
:103DC0002223C9F00E94BA1081EE0E94851D8D2F1A
:103DD0000E94851D8D2F0E94BA1081EE0E94BA109C
:103DE0008091BF01882319F081EE0E94851D80E03B
:103DF000DF91CF9108950E94851D8C2F0E94851D13
:103E00008C2F0E94BA1081EE0E94BA10F0CFCF938F
:103E1000DF93D62FC42FFC018281882309F1909172
:103E20009E01292F227091FB882780F98093BE0183
:103E30002223D1F081EE0E94BA1081EE0E94851DEE
:103E40008D2F0E94851D8D2F0E94BA1081EE0E9439
:103E5000BA108091BE01882319F081EE0E94851D61
:103E600080E0DF91CF910895842F0E94851D8C2FD3
:103E70000E94BA10F5CFCF93DF93D62FC42FFC0149
:103E80008281882381F080919E0181FF10C081EEA4
:103E90000E94BA108D2F0E94851D8D2F0E94BA108E
:103EA00081EE0E94851D80E0DF91CF910895842FDF
:103EB0000E94851D8C2F0E94BA10F5CF6091EB02F5
:103EC000669570E04BE050E084E091E00E94D730CE
:103ED000892B19F481E08093DB020E94D80A909329
:103EE000D5028093D4028091EA0280FF08C08DE25F
:103EF00093E09F938F930E9431090F900F90089544
:103F00009091EB0290FF55C0917081113CC092607E
:103F10009093EB026623F1F16091EB027091EC0259
:103F20008091ED029091EE020E9473168091EA0258
:103F300080FF0FC08091EB0286951F928F9389E9D5
:103F400092E09F938F930E9431090F900F900F90F2
:103F50000F906091EB02669570E04BE050E084E0DA
:103F600091E00E94D730892B09F10E94101181E065
:103F70008093D70220E04091EE026091ED028091A3
:103F8000EC020C9485168B3210F09465C1CF880F2B
:103F9000982BBECF8091EA0280FFDBCF8091EB02AD
:103FA00086951F928F938BE792E0CBCF0E945E1F86
:103FB000DECF08958091EB028695815009F48AE264
:103FC00061E00C94801F8091EB0286958F5F8B32AD
:103FD00008F081E061E00C94801F9091EB0290FF6B
:103FE00007C09695981720F0961710F40C94E31FCD
:103FF00061E00C94801F4F925F926F927F928F923C
:104000009F92AF92BF92CF92DF92EF92FF920F9367
:104010001F93CF93DF9300D000D00F92CDB7DEB7C0
:104020007C01FC0183819481892B39F01081D1803E
:10403000812F8D218F3F09F04EC60F900F900F906A
:104040000F900F90DF91CF911F910F91FF90EF9004
:10405000DF90CF90BF90AF909F908F907F906F90A8
:104060005F904F9008950E94AE0E082F682F8981AF
:104070009A810E942A0BE12FF0E02EE0D29EE00D03
:10408000F11D112436E4039FE00DF11D1124EE0F04
:10409000FF1FE058F94F05911491F801E952FD45D1
:1040A000EE30F10518F5E851FE4C0C9466304FE205
:1040B00050E06EE270E0C7010E94CE1E14C04FE1D6
:1040C00050E06FE270E0C7010E943B1F0CC043E26A
:1040D00050E06EE270E0F7CF44E250E063E270E05F
:1040E000C7010E94071F882309F459C0F701928174
:1040F000992309F454C6F801EC5BFC45E730F1055F
:1041000008F082C6EA50FE4C0C94663045E250E05E
:1041100064E370E0E5CF46E250E065E270E0E0CFB6
:1041200047E250E066E270E0DBCF4DE250E067E846
:1041300070E0D6CF4DE250E063E370E0BCCF40E3E7
:1041400050E060E370E0CCCF41E350E061E370E029
:10415000C7CF49E850E069E870E0C2CF43E350E0E0
:1041600064E370E0B0CF44E250E06FE170E0A3CFD1
:104170008091B202877088628093B202887F91E05A
:1041800009F490E08091B20290FB80F98093B20232
:1041900085E00E94D50B8091B2020E94DB158091D0
:1041A000A302877009F449CFF7018281882309F4BB
:1041B00044CF82E00F900F900F900F900F90DF91FF
:1041C000CF911F910F91FF90EF90DF90CF90BF9014
:1041D000AF909F908F907F906F905F904F900C94D6
:1041E000E10F8091B20287708E7F8093B20280E0EF
:1041F000D0CF8091B202982F987F79F08850809329
:10420000B202887F91E009F490E08091B20290FBC5
:1042100080F98093B2020E94DB158091EA0280FF50
:1042200089C58091B2028695869586951F928F9357
:104230008FED94E09F938F930E9431090F900F9020
:104240000F900F9077C58091B202982F9695969512
:104250009695953040F49F5F990F990F990F87704D
:10426000892B8093B2028091B20281608093B20266
:104270000E94DB158091EA0280FF5CC58091B2024A
:104280008695869586951F928F9387EF94E0D2CF7F
:104290001091B20211708091EA0280FF2DC51F9229
:1042A0001F9384E395E09F938F930E9431090F90B1
:1042B0000F900F900F90112309F420C58091B20246
:1042C00080FF6DCF8091B2028E7F8093B2020E94F8
:1042D000DB158091EA0280FF08C08FE095E09F9394
:1042E0008F930E9431090F900F9080E00E94D50BB0
:1042F00056CF9091B202892F8695869586958F5FCD
:104300008F719770863010F5880F880F880F892B72
:104310008093B2028091B202887F91E009F490E02C
:104320008091B20290FB80F98093B2020E94DB156B
:104330008091EA0280FFFEC48091B2028695869544
:1043400086951F928F938AE495E074CF9093B20282
:10435000E1CF1091B202169511708091EA0280FFB0
:10436000EFC41F921F9387E995E09F938F930E945C
:1043700031090F900F900F900F90112309F4E2C4B0
:104380008091B20281FF0BCF8091B2028D7F80932A
:10439000B2020E94DB158091EA0280FF08C08EE520
:1043A00095E09F938F930E9431090F900F90809119
:1043B0006F008E7F80936F00BDC407E225EE45EE4F
:1043C00069ED7CE505C506E221EE40EE64EF7CE593
:1043D000FFC407E225EE44EE65EF7CE5F9C406E292
:1043E00021EE42EE66EF7CE5F3C408E221E045EE03
:1043F0006AED7CE5EDC48091C402806106309CE5E5
:10440000190709F48CC08091C402886007301C45EC
:1044100008F485C08091C402806281C08091C4028A
:104420008D7F0C30FCE51F0709F479C070F4809192
:10443000C4028C600A303CE5130709F470C008F42C
:1044400081C08091C4028E7F6AC08091C402877F40
:104450000E309CE5190709F462C08091C4028B7F7D
:104460000F301C4508F45BC08091C4028F7E57C09A
:104470000C3FFCE51F0709F45DC030F503313CE556
:10448000130709F46DC078F401319CE5190709F4AC
:1044900063C002311C4509F002C50E94E5178091F6
:1044A000C4028F773CC00531FCE51F0709F460C0EA
:1044B00008F474C08091C50281600B3F1C4509F06F
:1044C000EEC48093C502EBC401158DE5180709F40D
:1044D0004BC088F48091C5028D7F0E3FECE51E072E
:1044E00081F38091C5028E7F0F3F1C4550F3809170
:1044F000C5028360E6CF02302DE5120709F457C0EC
:1045000008F442C060E003301D4509F0C8C48EE0E5
:1045100090E00E94F830C3C48091C402816080930F
:10452000C402BDC48091C4028260F9CF8091C402EC
:104530008460F5CF8091C5028260C3CF8091C402B0
:104540008064EDCF0E94E5178091C4028068E7CFB8
:104550008091C4028F7DE3CF8091C4028F7BDFCF37
:104560008091C402837FDBCF8091C5028C7FA9CF6D
:104570008091C40282FB992790F921E0922790FB59
:1045800082F990FB83F9CBCF8091C502982F90954B
:1045900091708E7F892B90FB81F993CF0E94E51754
:1045A0009091C402892F97FB87F98058B8CF61E0BA
:1045B000AECF8091A6020631ECE51E0709F0E3C3F9
:1045C0008A7A91E009F490E090933D02811106C04F
:1045D00089E20E9475100E941E0FE1CD85E3F9CF9C
:1045E00085E30FC48091EA0280FF10C08091EB0246
:1045F000809581701F928F9386E296E09F938F93B0
:104600000E9431090F900F900F900F908091EB0254
:1046100080FF2EC08E7F8093EB026091EB02709141
:10462000EC028091ED029091EE020E94731680914F
:10463000EA0280FF0FC08091EB0281701F928F937E
:1046400087EB95E09F938F930E9431090F900F9015
:104650000F900F900E941011FFEF20E732E0F15011
:1046600020403040E1F700C000000E94201297CDAA
:1046700081608093EB028091EA0280FF0DC01F925F
:1046800081E08F938FEE95E09F938F930E94310985
:104690000F900F900F900F908091EB0261E0869544
:1046A0000E94801F7CCD4AED5FE163EE7FE10E94B6
:1046B000FA0B75CD43EE5FE16AED7FE1F8CF42EA98
:1046C00057E16BEA77E1F3CF4BEA57E162EA77E132
:1046D000EECF4AE857E166E977E1E9CF46E957E1ED
:1046E0006AE877E1E4CF42E757E16EE777E1DFCFB1
:1046F0004EE757E162E777E1DACF44EB57E165EC4B
:1047000077E1D5CF45EC57E164EB77E1D0CF61E0BD
:1047100081E0C6CF65E082E00E94ED1F40CD68E0F9
:1047200086E0FACF6EE089E0F7CF64E18FE0F4CF66
:1047300067E185E1F1CF61E088E1B2CF62E289E132
:10474000EBCF61E083E2ACCF01308CE51807A1F03C
:104750000F3DECE51E0711F101151C4511F50E94F6
:10476000E5172FEF34E38CE0215030408040E1F733
:1047700000C000000E94FC119091EA02892F8E7FF8
:1047800090FF81608093EA0280FF05C08FE696E08B
:104790000E94980804CD8DE596E0FACF0E94EB15B3
:1047A000FECCF70100811181992309F43DC0C801B5
:1047B0000E94AE0ED82E682FC8010E942A0BB801A5
:1047C0008D2D0E94FE0C8C01882EF701A580A294ED
:1047D0004FE0A422D280D1101092A5028091A302B2
:1047E000877099F0DD2089F0812F807F803421F05F
:1047F00080E2800F883048F082E00E94E10F8091D3
:10480000A3028770CC24C3948111C12CB12EB29421
:104810003FE0B322FBE0FB1508F440C0EB2DF0E0D5
:10482000E350FE4C0C946630C8010E94020BD82E57
:10483000C6CF212F2F70A22E107F19F0A29420EF47
:10484000A222DD20C9F0AA2069F080E2800F883022
:1048500010F081100BC08091A602A82AA092A60297
:104860000E941E0F802F0E94851D18C08091A502F6
:10487000A82AA092A502F4CF802F0E94BA10AA20E5
:1048800069F0A094005E083010F0811045C080915E
:10489000A602A822A092A6020E941E0FEB2DE850AD
:1048A000FF0B349710F40E948C0BCC20A9F0809160
:1048B000A30280FD11C0F70112828595859585952B
:1048C0000E94F90FC7010E94FB1F8091A3028595EA
:1048D000859585950E94BE0F85E0F701DE01119652
:1048E00001900D928A95E1F789819A810E94020BCD
:1048F0009A81E981F0E02EE0929FE00DF11D1124F4
:1049000036E4839FE00DF11D1124EE0FFF1FE058E8
:10491000F94F8591949191CB8091A502A822A09204
:10492000A502BACF312F3F70932E107F103219F0AD
:10493000929490EF9922882071F081E0881661F1BD
:10494000DD20B9F1AA2071F1F701858180FF8ACFBE
:104950008F70858327C0DD2091F09091A702892D6B
:10496000892BA11003C00E942F1098CFE1E0AE1256
:10497000FACF981709F492CF8093A7028FCFA11096
:1049800006C00E94FC0A892D0E94241087CFF1E006
:10499000AF1609F483CFF5CFDD2031F025E02A15DD
:1049A00008F47CCF892DDFCF34E03A1508F476CFB8
:1049B000EACFAA2041F3F9E38F1286C12FEF37EE39
:1049C00083E0215030408040E1F700C000007CC10E
:1049D000812F86958695837061F0813009F05ECFD6
:1049E000C8019370D11002C090E080E00E94600B7B
:1049F00055CFC8019370D11002C090E080E00E94B2
:104A0000760B4CCF812F837009F066C0D11046CF52
:104A1000802F829586958770880F880F602F6F7022
:104A2000462E512C712C612C082E04C0440C551CB0
:104A3000661C771C0A94D2F740E050E0BA0104FFEC
:104A40000FC04FE050E060E070E004C0440F551F1D
:104A5000661F771F8A95D2F740955095609570959F
:104A6000812F869586958370823019F1D8F4009154
:104A7000A8021091A9022091AA023091AB028130C4
:104A800069F04429552966297729CB01BA016023A9
:104A90007123822393230E941A1000CF402A512AA7
:104AA000622A732ACB01BA016429752986299729BC
:104AB000F2CF44295529662977290091A80210913F
:104AC000A9022091AA023091AB02CB01BA01602762
:104AD000712782279327DFCF8695DD2011F0812F64
:104AE0008170882309F4DACE802F829586958770AD
:104AF000880F880F602F6F70462E512C712C612CFF
:104B0000082E04C0440C551C661C771C0A94D2F76E
:104B100040E050E0BA0104FF0FC04FE050E060E019
:104B200070E004C0440F551F661F771F8A95D2F7A7
:104B30004095509560957095812F869586958370E8
:104B4000823019F1D8F40091C0021091C102209175
:104B5000C2023091C302813069F044295529662987
:104B60007729CB01BA0160237123822393230E940A
:104B7000B40F94CE402A512A622A732ACB01BA017B
:104B80006429752986299729F2CF44295529662950
:104B900077290091C0021091C1022091C202309188
:104BA000C302CB01BA016027712782279327DFCF89
:104BB0001F70DD2029F0812F0E94F90F802FD3CEA6
:104BC000802F0E942410812F0E94BE0F67CE802F5D
:104BD00092EF891609F450C0981578F0E0EF8E1620
:104BE00019F1F1EF8F1609F43FC0DD2009F467C019
:104BF000A11038CE812F8F713CC023EF821609F4AB
:104C000040C034EF8312F1CFDD2009F44DC01F7195
:104C1000812F0E94F90FE8E01E9FC00111248360DC
:104C20008093A302812F25C0DD20C9F084E08A157E
:104C300008F434CE1F7161E070E080E090E004C0C1
:104C4000660F771F881F991F1A95D2F70091C0022F
:104C50001091C1022091C2023091C302A4CF95E00D
:104C60009A1508F41BCEE6CF812F8F71DD2009F451
:104C7000ABCF0E94F90F12CE812F8F71DD20C9F3C7
:104C8000A3CF60E070E0CB01DD2009F470CF1F718D
:104C900061E070E080E090E004C0660F771F881F3D
:104CA000991F1A95D2F763CF81E00E94E10FF1E0DE
:104CB000FA1508F0F3CD82E00E94E10FEFCDAA20B3
:104CC00039F0893309F47ACE802F0E94BA10E6CDEC
:104CD000812F8F7179CF85E0DE01119601900D92C1
:104CE0008A95E1F7F701228189819A812111BBC957
:104CF0000E94020B082FBFC91111E4CA8091B202B1
:104D000080FD4DCA81608093B202813019F489E040
:104D10008093B2028091B2020E94DB158091EA0278
:104D200080FF08C082E295E09F938F930E94310933
:104D30000F900F908091B202869586958695D6CA7F
:104D4000111122CB8091B20281FD29CA8260809329
:104D5000B2020E94DB158091EA0280FF08C08BE757
:104D600095E09F938F930E9431090F900F901092BE
:104D7000B5021092B4021092B30280916F0081606C
:104D800080936F000CCA8272F801E35CFC45E43149
:104D9000F10508F0D9CCE75FFD4C0C946630043F78
:104DA0002CE5120709F40FCBB8F4093D8CE5180780
:104DB00009F403CB0A3DECE51E0709F416CB083DC8
:104DC000FCE51F07A9F406E221EE41EE68ED7CE563
:104DD000C7010E94681EE3C9063F2CE5120709F4CB
:104DE000FECA08F4F6CA073F8CE5180709F473C039
:104DF00006311C4509F0D5CC80913D028111F0CBE4
:104E000089E20E943910E7CB043FECE51E0709F464
:104E1000DACA08F054C0093D2CE5120709F4CDCADE
:104E20000A3D3CE5130709F4E0CA083D8CE5180784
:104E300051F210923C020230FCE51F0708F4B9CB96
:104E400006312CE5120738F098012B5F3C452930DC
:104E5000310508F0AECB0E94CD159093C50280932A
:104E6000C40200313CE5130709F472CB08F000CB13
:104E700008309CE5190709F461CB08F0CFCA04306B
:104E8000FCE51F0709F452CB08F0B5CA02303CE537
:104E9000130709F441CB03301C4509F443CB60915F
:104EA000C4021091C50284E090E00E94F830612FA6
:104EB00081E290E00E94F8300E94E51770C9063F39
:104EC000ECE51E0709F48BCA08F483CA073F2CE5FA
:104ED000120709F0AECF07E225EE46EE67EF7CE55C
:104EE00077CF1F93CF93DF9380914302807FA9F404
:104EF00080914002882389F080917502D09144020C
:104F000060913E0270913F02A0914102B091420235
:104F1000C62FC72316E0D81304C0DF91CF911F918D
:104F2000089590E0109711F0CF3F19F40196877023
:104F3000F2CF189F9001199F300D1124F901EB5BFE
:104F4000FD4F41814713F2CF40814613EFCF42819D
:104F50004111ECCF438154814A1B5B0B483C510506
:104F600028F7809143028F70806180934302F9019A
:104F7000E65BFD4F80818F70806180838EE392E0DD
:104F80000E94FB1FDF91CF911F910C94560BAF92A3
:104F9000BF92CF92DF92EF92FF920F931F93CF9326
:104FA000DF93CDB7DEB761970FB6F894DEBF0FBEC3
:104FB000CDBF8C0185E0F801DE011D9601900D92B8
:104FC0008A95E1F7F80180819181E2802EE3A22E9B
:104FD00022E0B22E6091410270914202611571058A
:104FE00009F43EC130913E0240913F02232F242319
:104FF0002F3F09F435C1C380D480F0904002F60100
:10500000E61BF70BFF2009F4FBC020914302522F4F
:10501000507FE83CF10508F0BBC0511178C0FE2C70
:10502000491321C038131FC0E1101DC02F7020612B
:1050300020934302C5010E94FB1F80914302F801A7
:1050400085838F2D61960FB6F894DEBF0FBECDBF5E
:10505000DF91CF911F910F91FF90EF90DF90CF9054
:10506000BF90AF900895CD2829F0282F29232F3FF6
:1050700009F014C120E0F22FF170DF2E20FF3DC0B7
:10508000209175024091440256E0241315C08D878B
:105090009E878D859E850E94F00E292F22952F7068
:1050A0002230F8F0243020F59F70F9F0F801958156
:1050B000907FD9F4D12C1FC030E0529FF001539F54
:1050C000F00D1124EB5BFD4F6181961306C06081EA
:1050D000861303C06281E61210C02F5F3F4F277016
:1050E000D4CF9F7011F0882329F3805E883010F3AD
:1050F000C8010E94FB1FFD2CA4CFEE2009F4A1CF14
:1051000080914302816080934302F12C9ACF49132E
:1051100012C0381310C0E1100EC0F8012583C80179
:105120000E94FB1F86E0F801AEE3B2E001900D9211
:105130008A95E1F786CF8D879E878D859E850E9413
:10514000FA0E882309F1EE20F9F0809143028032B3
:1051500070F020913E0230913F0238872F831986EC
:10516000DB86CA868C87CE0107960E94FB1F86E0ED
:10517000F801AEE3B2E001900D928A95E1F70E944A
:105180007127FF24F3945DCFC8010E94FB1FF9CF64
:1051900051110AC08EE392E00E94FB1F86E0F501E8
:1051A00011928A95E9F7B1CF49130FC038130DC09A
:1051B000E1100BC0F8012583C8010E94FB1F86E0A7
:1051C000F50111928A95E9F73CCF8D879E878D85F1
:1051D0009E850E94FA0E8823B9F2EE20A9F28091F2
:1051E0004302803220F220913E0230913F023A8306
:1051F00029831B82DD82CC828E83CE010196B5CFBE
:10520000E83CF105E0F6FE2CEE2009F4BDCF491391
:1052100016C0381314C08091430280FD83CF982FAD
:10522000907F09F47FCFF8018583903F09F477CF11
:10523000982F907F905F8F70892B858370CF8D879B
:105240009E878D859E850E94FA0E811190CF809158
:105250004302816080934302C8010E94FB1FF1CE8C
:10526000EE2009F491CF8D879E878D859E850E94C3
:10527000FA0EF82E882309F487CF86E0F801AEE312
:10528000B2E001900D928A95E1F780913E029091F3
:105290003F020E94F00E0E947127D3CE21E02E25FE
:1052A000EACE1F93CF93DF93CDB7DEB767970FB6E4
:1052B000F894DEBF0FBECDBF4B8B5C8B6D8B7E8BAE
:1052C0008F8B1A8A198A85E0FE017396DE011D967E
:1052D00001900D928A95E1F786E0FE013D96DE0190
:1052E000179601900D928A95E1F7CE0107960E94DC
:1052F000C727882389F016E08091750290914402B7
:10530000891349C067960FB6F894DEBF0FBECDBFB4
:10531000DF91CF911F91089586E0FE013796DE015F
:10532000119601900D928A95E1F78A859B85892BCC
:1053300011F38F81988589238F3FE9F220914402F0
:1053400030E0C9010196877099274091750248178E
:10535000190671F40E94E51710924402109275022A
:1053600086E0EEE3F2E0DF011D928A95E9F7C3CF14
:1053700096E0929FD001939FB00D1124AB5BBD4F7F
:10538000FE01319601900D929A95E1F780934402C7
:105390000E94560BB0CF819FC00111248B5B9D4FA3
:1053A0000E94C727882309F4ADCF8091750290E051
:1053B000019687709927809375029ECF1F920F9256
:1053C0000FB60F9211242F933F934F935F936F93D8
:1053D0007F938F939F93AF93BF93CF93DF93EF937D
:1053E000FF93D091E900DF708091EC00C82FC1706D
:1053F00080FDC0E81092E9008091F000877F8093E3
:10540000F00078940E94FA171092E9008091F00061
:1054100088608093F000CD2BCF70C093E900FF919E
:10542000EF91DF91CF91BF91AF919F918F917F913C
:105430006F915F914F913F912F910F900FBE0F9001
:105440001F9018951F920F920FB60F9211242F9351
:105450003F934F935F936F937F938F939F93AF93FC
:10546000BF93EF93FF938091E10082FF15C080917D
:10547000E20082FF11C08091E1008B7F8093E10008
:105480002091E8022F5F822F62E30E94243099234B
:1054900009F4E8C02093E8028091DA0080FF28C078
:1054A0008091D80080FF24C08091DA008E7F8093A5
:1054B000DA008091D90080FF0BC180E189BD82E1D3
:1054C00089BD09B400FEFDCF81E08093160381E918
:1054D0009FE00E9498088091E902811109C00E9412
:1054E0003A090E94050A8091E20084608093E200FC
:1054F0008091E10080FF1BC08091E20080FF17C017
:105500008091E2008E7F8093E2008091E2008061D2
:105510008093E2008091D80080628093D80019BC0B
:1055200085E08093160389E99FE00E9498088091A6
:10553000E10084FF57C08091E20084FF53C080E106
:1055400089BD82E189BD89B5982F917080FFFBCF1D
:105550008091D8008F7D8093D8008091E1008F7E6C
:105560008093E1008091E2008F7E8093E200809141
:10557000E20081608093E20080911703882309F4A0
:10558000B1C084E08093160386ED9FE00E949808E6
:105590000E94E5170E9455160E948C0B1092F10292
:1055A0008091F0028823E1F08091EB02816080938A
:1055B000EB028091EA0280FF0DC01F9281E08F9381
:1055C0008DE99FE09F938F930E9431090F900F9078
:1055D0000F900F908091EB0260E086950E94801FF3
:1055E0000E945E1F8091E10083FF2BC08091E2004A
:1055F00083FF27C08091E100877F8093E10082E0F4
:1056000080931603109217038091E1008E7F8093A0
:10561000E1008091E2008E7F8093E2008091E200C1
:1056200080618093E20042E060E080E00E94D30964
:105630008091F00088608093F0008AED9FE00E94E6
:105640009808FF91EF91BF91AF919F918F917F91BA
:105650006F915F914F913F912F910F900FBE0F90DF
:105660001F9018951092E8028091E702882309F4B0
:1056700013CF809116038430C1F49091E9009F709C
:105680002091EC00822F817020FD80E8892B93E02F
:105690009093E9009091EB0090FF04C09091EE0090
:1056A00097FD08C08F708093E9001092E702F4CE56
:1056B0001092F1009091E80095FDFACF9091E800EA
:1056C00090FFF0CF9091E8009E779093E800EACFAA
:1056D00019BC1092160385E99FE00E949808109269
:1056E000E90206CF8091E30087FD93E090931603D3
:1056F0004BCFCDB7DEB72B970FB6F894DEBF0FBEFA
:10570000CDBF84B7877F84BF0FB6F894A8958091EA
:105710006000886180936000109260000FBE80E896
:1057200090E00FB6F89480936100909361000FBEF3
:1057300085B7806885BF85B7806885BF0E943A09B4
:105740000E94050A8091E20084608093E2008FE16C
:1057500091E190939D0180939C0178948091160330
:105760008823A1F01091E9001F709091EC00892F1F
:10577000817090FD80E8182B1092E9008091E8007C
:1057800083FD0E94FA171F701093E90082E084BD28
:1057900093E095BD9AEF97BD80936E0083E30E94DE
:1057A000A40C82E30E94A40C81E30E94A40C80E379
:1057B0000E94A40C84E90E94A40C0EE711E04CE8BE
:1057C000E42E41E0F42EF80181918F010E94A40C97
:1057D000E016F106C1F71092B7021092B6021092CD
:1057E000CB021092CA021092B9021092B802109223
:1057F000CD021092CC021092BB021092BA0210920B
:10580000CF021092CE021092BD021092BC021092F2
:10581000D1021092D0021092BF021092BE021092DA
:10582000D3021092D2020E9414158FE39CE90197D3
:10583000F1F700C000000E9414158091CA0280FF99
:1058400008C06FEF7FEF90E080E00E9416310E9469
:10585000FC110E94E015811102C00E94EB15279AED
:105860002F988AE08093800089E1809381008FEFF8
:105870009FEF90938700809386000E945516809139
:10588000B20281FF0BC01092B5021092B4021092C6
:10589000B30280916F00816080936F000E94E015D9
:1058A000811102C00E94EB1582E090E00E94E4307A
:1058B0008093EA020E94CD159093C5028093C402A2
:1058C00083E090E00E94E430682F70E090E080E098
:1058D0000E941A100E9455168091C6028111DDC0E7
:1058E0008091EA0280FF14C085ED9EE09F938F9324
:1058F0000E9431098091EA020F900F9080FF08C04A
:105900008FEB9EE09F938F930E9431090F900F9031
:105910000E94E015811110C08091EA0280FF08C04A
:1059200087E99EE09F938F930E9431090F900F901B
:105930000E94EB150E94D61788E090E00E94EC30A0
:105940006093EB027093EC028093ED029093EE0271
:105950006E7FD1F48091EA0280FF08C08EE49EE061
:105960009F938F930E9431090F900F900E94D6173A
:1059700088E090E00E94EC306093EB027093EC02C0
:105980008093ED029093EE020E94FF0B8091EA0259
:1059900080FF76C085E39EE09F938F930E9431093C
:1059A0008091EA020F900F9080FF6AC08091EB0215
:1059B00081701F928F9388E19EE09F938F930E9446
:1059C00031098091EA020F900F900F900F9080FFA5
:1059D00057C08091EB0286951F928F938DEF9DE0CB
:1059E0009F938F930E9431098091EA020F900F904C
:1059F0000F900F9080FF44C08091EC021F928F9314
:105A000083EE9DE09F938F930E9431098091EA027B
:105A10000F900F900F900F9080FF32C08091ED0299
:105A20001F928F9389EC9DE09F938F930E94310981
:105A30008091EA020F900F900F900F9080FF20C08E
:105A40008091EE021F928F938FEA9DE09F938F9338
:105A50000E9431098091EA020F900F900F900F90F1
:105A600080FF0EC08091EF021F928F9383E99DE02B
:105A70009F938F930E9431090F900F900F900F907A
:105A80001092DB028091EB0280FF04C060E08695FB
:105A90000E94801F81E08093C60282E191E0909392
:105AA000C8028093C70280E89FE00E94980871C0F6
:105AB0008CE79FE00E94980880911603843009F4D7
:105AC00056C01092C90288E190E020E40FB6F89425
:105AD000A895809360000FBE2093600080E00E9434
